S0100000414D49545F4156522E73726563A1
S11300000C9434000C9451000C9451000C94510045
S11300100C9451000C9451000C9451000C94510018
S11300200C9451000C9451000C9451000C94510008
S11300300C9451000C9451000C9451000C945100F8
S11300400C9451000C9451000C9451000C945100E8
S11300500C9451000C9451000C9451000C945100D8
S11300600C9451000C94510011241FBECFEFD8E022
S1130070DEBFCDBF11E0A0E0B1E0EEEBF3E002C0E3
S113008005900D92A030B107D9F721E0A0E0B1E0CE
S113009001C01D92A030B207E1F70E9413010C9435
S11300A0DD010C94000041E00E9415010895FA015D
S11300B0408191E0492740830E9479010895CF93BC
S11300C0DF93EC018881813009F04CC041E064E0A9
S11300D00E94150141E065E081E00E94150140E0C5
S11300E066E081E00E94150141E067E081E00E9442
S11300F015012DB1988130E1939FC0011124922FF5
S11301009F7E892B8DB99981923048F48DB1282F27
S11301102F7D30E2939FC0011124822B8DB98A81F7
S1130120823038F49DB1977F880F880F880F892B10
S11301308DB98B81823030F49DB19B7F880F880FFD
S1130140892B8DB98C81883038F42DB19DB12C7FE9
S11301508370822B892B8DB98C81843008F0709A3E
S11301606E9A2CC081112AC040E064E081E00E94B4
S1130170150140E065E081E00E94150141E066E080
S113018081E00E94150140E067E081E00E941501D2
S11301909981923048F48DB1282F2F7D30E2939FBE
S11301A0C0011124822B8DB98B81823030F49DB132
S11301B09B7F880F880F892B8DB96E9ADF91CF9121
S11301C00895779BFECF8FB10895CF93DF9300D02E
S11301D000D000D0CDB7DEB762E082E00E945300C9
S11301E067E082E00E945300CE01029625E0FC0104
S11301F011922A95E9F70E945F000E94E100813381
S113020041F4AE014F5F5F4F62E082E00E9457000D
S1130210F4CF823391F7AE014F5F5F4F67E082E026
S11302200E945700EACF0E94E500683008F05DC0E4
S11302308130E1F030F0823071F1833009F440C054
S113024056C02AB381E090E0062E02C0880F991FA1
S11302500A94E2F78095822350E002C0440F551FB0
S11302606A95E2F7482B4ABB81E0089527B381E001
S113027090E0062E02C0880F991F0A94E2F7809539
S1130280822350E002C0440F551F6A95E2F7482BC1
S113029047BB81E0089524B381E090E0062E02C0BC
S11302A0880F991F0A94E2F78095822350E002C0D8
S11302B0440F551F6A95E2F7482B44BB81E008952B
S11302C021B381E090E0062E02C0880F991F0A94A2
S11302D0E2F78095822350E002C0440F551F6A95CF
S11302E0E2F7482B41BB81E0089580E0089580E067
S11302F00895683008F05DC08130E1F030F082305C
S113030071F1833009F440C056C02BB381E090E012
S1130310062E02C0880F991F0A94E2F78095822363
S113032050E002C0440F551F6A95E2F7482B4BBBBF
S113033081E0089528B381E090E0062E02C0880F82
S1130340991F0A94E2F78095822350E002C0440F7B
S1130350551F6A95E2F7482B48BB81E0089525B301
S113036081E090E0062E02C0880F991F0A94E2F7FC
S11303708095822350E002C0440F551F6A95E2F72E
S1130380482B45BB81E0089522B381E090E0062E1E
S113039002C0880F991F0A94E2F78095822350E0E7
S11303A002C0440F551F6A95E2F7482B42BB81E017
S11103B0089580E0089580E00895F894FFCF4A
S9030000FC
