S0100000414D49545F4156522E73726563A1
S11300000C9434000C9451000C9451000C94510045
S11300100C9451000C9451000C9451000C94510018
S11300200C9451000C9451000C9451000C94510008
S11300300C9488000C94CB000C9402010C94510095
S11300400C9451000C9451000C9451000C945100E8
S11300500C9451000C9451000C9451000C945100D8
S11300600C9451000C94510011241FBECFEFD8E022
S1130070DEBFCDBF11E0A0E0B1E0EAE5F4E002C0EC
S113008005900D92A230B107D9F721E0A2E0B1E0CA
S113009001C01D92AC30B207E1F70E9461010C94DB
S11300A02B020C94000041E00E946301089541E09A
S11300B00E94C701089540E00E94C70108956D9809
S11300C06B9A6A9A40E065E081E00E94630141E036
S11300D066E081E00E94630140E067E081E00E9405
S11300E0630140E064E081E00E9463016C986E9AD1
S11300F0109203011092020181E008956F988FB964
S11301006E9A779BFECF8FB1FB0180836E98089522
S11301101F920F920FB60F9211242F933F934F9378
S11301205F936F937F938F939F93AF93BF93EF935B
S1130130FF9380910001813081F4E0910401F091FA
S113014005013097A1F08FB109956E986F9841E041
S113015064E081E00E94C7010AC0811108C06F9861
S11301608FB1E0910201F091030109956E988AE044
S113017080930001FF91EF91BF91AF919F918F9177
S11301807F916F915F914F913F912F910F900FBE8F
S11301900F901F9018951F920F920FB60F92112473
S11301A02F933F934F935F936F937F938F939F937B
S11301B0AF93BF93EF93FF93E0910601F091070192
S11301C0309779F080910B01813031F480B55D9BDB
S11301D0FECF8CB190E004C05D9BFECF8CB190E06B
S11301E00995FF91EF91BF91AF919F918F917F916D
S11301F06F915F914F913F912F910F900FBE0F9090
S11302001F9018951F920F920FB60F9211248F937F
S1130210EF93FF93E0910801F091090180818CB97B
S11302205E9BFECF5E9A5598FF91EF918F910F9050
S11302300FBE0F901F901895CF93DF931F92CDB7E9
S1130240DEB70E945F0062E082E00E94530067E034
S113025082E00E945300BE016F5F7F4F80E00E94E6
S11302607E008981813391F018F4803331F0F3CF2B
S11302708333A9F08433E1F0EECF62E082E00E94A0
S1130280570067E082E00E945B00E5CF62E082E015
S11302900E945B0067E082E00E945700DCCF62E0CE
S11302A082E00E94570067E082E00E945700D3CFAB
S11302B062E082E00E945B0067E082E00E945B00F3
S11302C0CACF0E941C01683008F05DC08130E1F0A3
S11302D030F0823071F1833009F440C056C02AB343
S11302E081E090E0062E02C0880F991F0A94E2F77D
S11302F08095822350E002C0440F551F6A95E2F7AF
S1130300482B4ABB81E0089527B381E090E0062E94
S113031002C0880F991F0A94E2F78095822350E067
S113032002C0440F551F6A95E2F7482B47BB81E092
S1130330089524B381E090E0062E02C0880F991F2F
S11303400A94E2F78095822350E002C0440F551FBF
S11303506A95E2F7482B44BB81E0089521B381E01C
S113036090E0062E02C0880F991F0A94E2F7809548
S1130370822350E002C0440F551F6A95E2F7482BD0
S113038041BB81E0089580E0089580E008956830DD
S113039008F05DC08130E1F030F0823071F18330DB
S11303A009F440C056C02BB381E090E0062E02C091
S11303B0880F991F0A94E2F78095822350E002C0C7
S11303C0440F551F6A95E2F7482B4BBB81E0089513
S11303D028B381E090E0062E02C0880F991F0A948A
S11303E0E2F78095822350E002C0440F551F6A95BE
S11303F0E2F7482B48BB81E0089525B381E090E003
S1130400062E02C0880F991F0A94E2F78095822372
S113041050E002C0440F551F6A95E2F7482B45BBD4
S113042081E0089522B381E090E0062E02C0880F97
S1130430991F0A94E2F78095822350E002C0440F8A
S1130440551F6A95E2F7482B42BB81E0089580E08E
S10D0450089580E00895F894FFCFAA
S105045A0A0092
S9030000FC
