S0100000414D49545F4156522E73726563A1
S11300000C9434000C9449000C9449000C9449005D
S11300100C9449000C9449000C9449000C94490038
S11300200C9449000C9449000C9449000C94490028
S11300300C9449000C9449000C9449000C94490018
S11300400C9449000C9449000C9449000C94490008
S11300500C9449000C9449000C9449000C944900F8
S11300600C9449000C94490011241FBECFEFD8E032
S1130070DEBFCDBF11E0A0E0B1E0E2E7F2E002C0F4
S113008005900D92A030B107D9F70E9457000C9447
S113009037010C94000041E00E946F00089541E094
S11300A00E94D300089540E00E94D300089562E0C6
S11300B082E00E944B0062E082E00E944F002FE742
S11300C08AE196E0215080409040E1F700C00000B2
S11300D062E082E00E94530080E090E0089568307E
S11300E008F05DC08130E1F030F0823071F183308E
S11300F009F440C056C02AB381E090E0062E02C045
S1130100880F991F0A94E2F78095822350E002C079
S1130110440F551F6A95E2F7482B4ABB81E00895C6
S113012027B381E090E0062E02C0880F991F0A943D
S1130130E2F78095822350E002C0440F551F6A9570
S1130140E2F7482B47BB81E0089524B381E090E0B7
S1130150062E02C0880F991F0A94E2F78095822325
S113016050E002C0440F551F6A95E2F7482B44BB88
S113017081E0089521B381E090E0062E02C0880F4B
S1130180991F0A94E2F78095822350E002C0440F3D
S1130190551F6A95E2F7482B41BB81E0089580E042
S11301A0089580E00895683008F05DC08130E1F082
S11301B030F0823071F1833009F440C056C02BB363
S11301C081E090E0062E02C0880F991F0A94E2F79E
S11301D08095822350E002C0440F551F6A95E2F7D0
S11301E0482B4BBB81E0089528B381E090E0062EB4
S11301F002C0880F991F0A94E2F78095822350E089
S113020002C0440F551F6A95E2F7482B48BB81E0B2
S1130210089525B381E090E0062E02C0880F991F4F
S11302200A94E2F78095822350E002C0440F551FE0
S11302306A95E2F7482B45BB81E0089522B381E03B
S113024090E0062E02C0880F991F0A94E2F7809569
S1130250822350E002C0440F551F6A95E2F7482BF1
S113026042BB81E0089580E0089580E00895F89409
S1050270FFCFBA
S9030000FC
